{
  "_format": "hh-sol-artifact-1",
  "contractName": "Institute",
  "sourceName": "contracts/Institute.sol",
  "abi": [
    {
      "anonymous": false,
      "inputs": [
        {
          "indexed": true,
          "internalType": "address",
          "name": "warrantyContractAddress",
          "type": "address"
        },
        {
          "indexed": true,
          "internalType": "address",
          "name": "sender",
          "type": "address"
        }
      ],
      "name": "InstituteCreated",
      "type": "event"
    },
    {
      "inputs": [
        {
          "internalType": "string",
          "name": "NFTName",
          "type": "string"
        },
        {
          "internalType": "string",
          "name": "NFTSymbol",
          "type": "string"
        }
      ],
      "name": "createInstitute",
      "outputs": [
        {
          "internalType": "contract AgreementNFT",
          "name": "",
          "type": "address"
        }
      ],
      "stateMutability": "nonpayable",
      "type": "function"
    },
    {
      "inputs": [],
      "name": "getAgreementContract",
      "outputs": [
        {
          "internalType": "contract AgreementNFT",
          "name": "",
          "type": "address"
        }
      ],
      "stateMutability": "view",
      "type": "function"
    },
    {
      "inputs": [
        {
          "internalType": "address",
          "name": "",
          "type": "address"
        }
      ],
      "name": "institutes",
      "outputs": [
        {
          "internalType": "contract AgreementNFT",
          "name": "AgreementContract",
          "type": "address"
        },
        {
          "internalType": "bool",
          "name": "isValue",
          "type": "bool"
        }
      ],
      "stateMutability": "view",
      "type": "function"
    }
  ],
  "bytecode": "0x608060405234801561001057600080fd5b50613aa4806100206000396000f3fe60806040523480156200001157600080fd5b5060043610620000465760003560e01c80637e0e46b7146200004b5780639ca108421462000082578063adb7ac5a14620000a4575b600080fd5b620000696004803603810190620000639190620003fc565b620000da565b60405162000079929190620004b6565b60405180910390f35b6200008c6200012b565b6040516200009b9190620004e3565b60405180910390f35b620000c26004803603810190620000bc919062000662565b62000194565b604051620000d19190620004e3565b60405180910390f35b60006020528060005260406000206000915090508060000160009054906101000a900473ffffffffffffffffffffffffffffffffffffffff16908060000160149054906101000a900460ff16905082565b60008060003373ffffffffffffffffffffffffffffffffffffffff1673ffffffffffffffffffffffffffffffffffffffff16815260200190815260200160002060000160009054906101000a900473ffffffffffffffffffffffffffffffffffffffff16905090565b600080338484604051620001a89062000375565b620001b6939291906200078b565b604051809103906000f080158015620001d3573d6000803e3d6000fd5b509050806000803373ffffffffffffffffffffffffffffffffffffffff1673ffffffffffffffffffffffffffffffffffffffff16815260200190815260200160002060000160006101000a81548173ffffffffffffffffffffffffffffffffffffffff021916908373ffffffffffffffffffffffffffffffffffffffff16021790555060016000803373ffffffffffffffffffffffffffffffffffffffff1673ffffffffffffffffffffffffffffffffffffffff16815260200190815260200160002060000160146101000a81548160ff0219169083151502179055503373ffffffffffffffffffffffffffffffffffffffff168173ffffffffffffffffffffffffffffffffffffffff167f32727c37fd51dc10526b1ab24306f8eba61a0630d10870844437a2793b54796760405160405180910390a36000803373ffffffffffffffffffffffffffffffffffffffff1673ffffffffffffffffffffffffffffffffffffffff16815260200190815260200160002060000160009054906101000a900473ffffffffffffffffffffffffffffffffffffffff1691505092915050565b61329880620007d783390190565b6000604051905090565b600080fd5b600080fd5b600073ffffffffffffffffffffffffffffffffffffffff82169050919050565b6000620003c48262000397565b9050919050565b620003d681620003b7565b8114620003e257600080fd5b50565b600081359050620003f681620003cb565b92915050565b6000602082840312156200041557620004146200038d565b5b60006200042584828501620003e5565b91505092915050565b6000819050919050565b600062000459620004536200044d8462000397565b6200042e565b62000397565b9050919050565b60006200046d8262000438565b9050919050565b6000620004818262000460565b9050919050565b620004938162000474565b82525050565b60008115159050919050565b620004b08162000499565b82525050565b6000604082019050620004cd600083018562000488565b620004dc6020830184620004a5565b9392505050565b6000602082019050620004fa600083018462000488565b92915050565b600080fd5b600080fd5b6000601f19601f8301169050919050565b7f4e487b7100000000000000000000000000000000000000000000000000000000600052604160045260246000fd5b62000555826200050a565b810181811067ffffffffffffffff821117156200057757620005766200051b565b5b80604052505050565b60006200058c62000383565b90506200059a82826200054a565b919050565b600067ffffffffffffffff821115620005bd57620005bc6200051b565b5b620005c8826200050a565b9050602081019050919050565b82818337600083830152505050565b6000620005fb620005f5846200059f565b62000580565b9050828152602081018484840111156200061a576200061962000505565b5b62000627848285620005d5565b509392505050565b600082601f83011262000647576200064662000500565b5b813562000659848260208601620005e4565b91505092915050565b600080604083850312156200067c576200067b6200038d565b5b600083013567ffffffffffffffff8111156200069d576200069c62000392565b5b620006ab858286016200062f565b925050602083013567ffffffffffffffff811115620006cf57620006ce62000392565b5b620006dd858286016200062f565b9150509250929050565b620006f281620003b7565b82525050565b600081519050919050565b600082825260208201905092915050565b60005b838110156200073457808201518184015260208101905062000717565b8381111562000744576000848401525b50505050565b60006200075782620006f8565b62000763818562000703565b93506200077581856020860162000714565b62000780816200050a565b840191505092915050565b6000606082019050620007a26000830186620006e7565b8181036020830152620007b681856200074a565b90508181036040830152620007cc81846200074a565b905094935050505056fe60a06040523480156200001157600080fd5b50604051620032983803806200329883398181016040528101906200003791906200035f565b8181816000908051906020019062000051929190620000ad565b5080600190805190602001906200006a929190620000ad565b5050508273ffffffffffffffffffffffffffffffffffffffff1660808173ffffffffffffffffffffffffffffffffffffffff1660601b815250505050506200045e565b828054620000bb9062000428565b90600052602060002090601f016020900481019282620000df57600085556200012b565b82601f10620000fa57805160ff19168380011785556200012b565b828001600101855582156200012b579182015b828111156200012a5782518255916020019190600101906200010d565b5b5090506200013a91906200013e565b5090565b5b80821115620001595760008160009055506001016200013f565b5090565b6000604051905090565b600080fd5b600080fd5b600073ffffffffffffffffffffffffffffffffffffffff82169050919050565b60006200019e8262000171565b9050919050565b620001b08162000191565b8114620001bc57600080fd5b50565b600081519050620001d081620001a5565b92915050565b600080fd5b600080fd5b6000601f19601f8301169050919050565b7f4e487b7100000000000000000000000000000000000000000000000000000000600052604160045260246000fd5b6200022b82620001e0565b810181811067ffffffffffffffff821117156200024d576200024c620001f1565b5b80604052505050565b6000620002626200015d565b905062000270828262000220565b919050565b600067ffffffffffffffff821115620002935762000292620001f1565b5b6200029e82620001e0565b9050602081019050919050565b60005b83811015620002cb578082015181840152602081019050620002ae565b83811115620002db576000848401525b50505050565b6000620002f8620002f28462000275565b62000256565b905082815260208101848484011115620003175762000316620001db565b5b62000324848285620002ab565b509392505050565b600082601f830112620003445762000343620001d6565b5b815162000356848260208601620002e1565b91505092915050565b6000806000606084860312156200037b576200037a62000167565b5b60006200038b86828701620001bf565b935050602084015167ffffffffffffffff811115620003af57620003ae6200016c565b5b620003bd868287016200032c565b925050604084015167ffffffffffffffff811115620003e157620003e06200016c565b5b620003ef868287016200032c565b9150509250925092565b7f4e487b7100000000000000000000000000000000000000000000000000000000600052602260045260246000fd5b600060028204905060018216806200044157607f821691505b60208210811415620004585762000457620003f9565b5b50919050565b60805160601c612e1e6200047a60003960005050612e1e6000f3fe608060405234801561001057600080fd5b50600436106101165760003560e01c806370a08231116100a2578063a22cb46511610071578063a22cb46514610309578063b88d4fde14610325578063bc491c1214610341578063c87b56dd1461035d578063e985e9c51461038d57610116565b806370a082311461026d5780637bbf3a411461029d57806395d89b41146102cd5780639714609a146102eb57610116565b806323b872dd116100e957806323b872dd146101b557806342842e0e146101d15780635e1f6edc146101ed5780635f5ee98f1461021f5780636352211e1461023d57610116565b806301ffc9a71461011b57806306fdde031461014b578063081812fc14610169578063095ea7b314610199575b600080fd5b61013560048036038101906101309190611d12565b6103bd565b6040516101429190611d5a565b60405180910390f35b61015361049f565b6040516101609190611e0e565b60405180910390f35b610183600480360381019061017e9190611e66565b610531565b6040516101909190611ed4565b60405180910390f35b6101b360048036038101906101ae9190611f1b565b610577565b005b6101cf60048036038101906101ca9190611f5b565b61068f565b005b6101eb60048036038101906101e69190611f5b565b6106ef565b005b61020760048036038101906102029190611e66565b61070f565b60405161021693929190611fbd565b60405180910390f35b6102276107c1565b60405161023491906120b9565b60405180910390f35b61025760048036038101906102529190611e66565b610856565b6040516102649190611ed4565b60405180910390f35b610287600480360381019061028291906120db565b610908565b6040516102949190612108565b60405180910390f35b6102b760048036038101906102b29190611e66565b6109c0565b6040516102c49190612108565b60405180910390f35b6102d5610a30565b6040516102e29190611e0e565b60405180910390f35b6102f3610ac2565b604051610300919061222f565b60405180910390f35b610323600480360381019061031e919061227d565b610c10565b005b61033f600480360381019061033a91906123f2565b610c26565b005b61035b60048036038101906103569190612516565b610c88565b005b61037760048036038101906103729190611e66565b610f5c565b6040516103849190611e0e565b60405180910390f35b6103a760048036038101906103a29190612585565b611033565b6040516103b49190611d5a565b60405180910390f35b60007f80ac58cd000000000000000000000000000000000000000000000000000000007bffffffffffffffffffffffffffffffffffffffffffffffffffffffff1916827bffffffffffffffffffffffffffffffffffffffffffffffffffffffff1916148061048857507f5b5e139f000000000000000000000000000000000000000000000000000000007bffffffffffffffffffffffffffffffffffffffffffffffffffffffff1916827bffffffffffffffffffffffffffffffffffffffffffffffffffffffff1916145b806104985750610497826110c7565b5b9050919050565b6060600080546104ae906125f4565b80601f01602080910402602001604051908101604052809291908181526020018280546104da906125f4565b80156105275780601f106104fc57610100808354040283529160200191610527565b820191906000526020600020905b81548152906001019060200180831161050a57829003601f168201915b5050505050905090565b600061053c82611131565b6004600083815260200190815260200160002060009054906101000a900473ffffffffffffffffffffffffffffffffffffffff169050919050565b600061058282610856565b90508073ffffffffffffffffffffffffffffffffffffffff168373ffffffffffffffffffffffffffffffffffffffff1614156105f3576040517f08c379a00000000000000000000000000000000000000000000000000000000081526004016105ea90612698565b60405180910390fd5b8073ffffffffffffffffffffffffffffffffffffffff1661061261117c565b73ffffffffffffffffffffffffffffffffffffffff16148061064157506106408161063b61117c565b611033565b5b610680576040517f08c379a00000000000000000000000000000000000000000000000000000000081526004016106779061272a565b60405180910390fd5b61068a8383611184565b505050565b6106a061069a61117c565b8261123d565b6106df576040517f08c379a00000000000000000000000000000000000000000000000000000000081526004016106d6906127bc565b60405180910390fd5b6106ea8383836112d2565b505050565b61070a83838360405180602001604052806000815250610c26565b505050565b6008602052806000526040600020600091509050806000015490806001018054610738906125f4565b80601f0160208091040260200160405190810160405280929190818152602001828054610764906125f4565b80156107b15780601f10610786576101008083540402835291602001916107b1565b820191906000526020600020905b81548152906001019060200180831161079457829003601f168201915b5050505050908060020154905083565b6060600760003373ffffffffffffffffffffffffffffffffffffffff1673ffffffffffffffffffffffffffffffffffffffff16815260200190815260200160002080548060200260200160405190810160405280929190818152602001828054801561084c57602002820191906000526020600020905b815481526020019060010190808311610838575b5050505050905090565b6000806002600084815260200190815260200160002060009054906101000a900473ffffffffffffffffffffffffffffffffffffffff169050600073ffffffffffffffffffffffffffffffffffffffff168173ffffffffffffffffffffffffffffffffffffffff1614156108ff576040517f08c379a00000000000000000000000000000000000000000000000000000000081526004016108f690612828565b60405180910390fd5b80915050919050565b60008073ffffffffffffffffffffffffffffffffffffffff168273ffffffffffffffffffffffffffffffffffffffff161415610979576040517f08c379a0000000000000000000000000000000000000000000000000000000008152600401610970906128ba565b60405180910390fd5b600360008373ffffffffffffffffffffffffffffffffffffffff1673ffffffffffffffffffffffffffffffffffffffff168152602001908152602001600020549050919050565b600080600a6000848152602001908152602001600020541415610a0f576040517f8dfc493500000000000000000000000000000000000000000000000000000000815260040160405180910390fd5b6000600a600084815260200190815260200160002054905080915050919050565b606060018054610a3f906125f4565b80601f0160208091040260200160405190810160405280929190818152602001828054610a6b906125f4565b8015610ab85780601f10610a8d57610100808354040283529160200191610ab8565b820191906000526020600020905b815481529060010190602001808311610a9b57829003601f168201915b5050505050905090565b60606000600960003373ffffffffffffffffffffffffffffffffffffffff1673ffffffffffffffffffffffffffffffffffffffff168152602001908152602001600020805480602002602001604051908101604052809291908181526020018280548015610b4f57602002820191906000526020600020905b815481526020019060010190808311610b3b575b505050505090506000815167ffffffffffffffff811115610b7357610b726122c7565b5b604051908082528060200260200182016040528015610ba657816020015b6060815260200190600190039081610b915790505b50905060005b8251811015610c0757610bd8838281518110610bcb57610bca6128da565b5b6020026020010151610f5c565b828281518110610beb57610bea6128da565b5b602002602001018190525080610c0090612938565b9050610bac565b50809250505090565b610c22610c1b61117c565b8383611539565b5050565b610c37610c3161117c565b8361123d565b610c76576040517f08c379a0000000000000000000000000000000000000000000000000000000008152600401610c6d906127bc565b60405180910390fd5b610c82848484846116a6565b50505050565b6000610d21600760008673ffffffffffffffffffffffffffffffffffffffff1673ffffffffffffffffffffffffffffffffffffffff168152602001908152602001600020805480602002602001604051908101604052809291908181526020018280548015610d1657602002820191906000526020600020905b815481526020019060010190808311610d02575b505050505084611702565b90508015610d5b576040517f744c050a00000000000000000000000000000000000000000000000000000000815260040160405180910390fd5b600760008573ffffffffffffffffffffffffffffffffffffffff1673ffffffffffffffffffffffffffffffffffffffff1681526020019081526020016000208390806001815401808255809150506001900390600052602060002001600090919091909150556000600a60008581526020019081526020016000205414610e0e576040517f4abcc3ac00000000000000000000000000000000000000000000000000000000815260040160405180910390fd5b610e18600661175c565b6000610e246006611772565b9050610e308582611780565b60405180606001604052808281526020018481526020014281525060086000838152602001908152602001600020600082015181600001556020820151816001019080519060200190610e84929190611c03565b506040820151816002015590505080600a600086815260200190815260200160002081905550600960008673ffffffffffffffffffffffffffffffffffffffff1673ffffffffffffffffffffffffffffffffffffffff1681526020019081526020016000208190806001815401808255809150506001900390600052602060002001600090919091909150553373ffffffffffffffffffffffffffffffffffffffff1684827ffca9437e237ca408a74cca23e3078fd1f6c700960dac7f09f8c6cf5177aefe1a60405160405180910390a45050505050565b606060006008600084815260200190815260200160002060405180606001604052908160008201548152602001600182018054610f98906125f4565b80601f0160208091040260200160405190810160405280929190818152602001828054610fc4906125f4565b80156110115780601f10610fe657610100808354040283529160200191611011565b820191906000526020600020905b815481529060010190602001808311610ff457829003601f168201915b5050505050815260200160028201548152505090508060200151915050919050565b6000600560008473ffffffffffffffffffffffffffffffffffffffff1673ffffffffffffffffffffffffffffffffffffffff16815260200190815260200160002060008373ffffffffffffffffffffffffffffffffffffffff1673ffffffffffffffffffffffffffffffffffffffff16815260200190815260200160002060009054906101000a900460ff16905092915050565b60007f01ffc9a7000000000000000000000000000000000000000000000000000000007bffffffffffffffffffffffffffffffffffffffffffffffffffffffff1916827bffffffffffffffffffffffffffffffffffffffffffffffffffffffff1916149050919050565b61113a8161179e565b611179576040517f08c379a000000000000000000000000000000000000000000000000000000000815260040161117090612828565b60405180910390fd5b50565b600033905090565b816004600083815260200190815260200160002060006101000a81548173ffffffffffffffffffffffffffffffffffffffff021916908373ffffffffffffffffffffffffffffffffffffffff160217905550808273ffffffffffffffffffffffffffffffffffffffff166111f783610856565b73ffffffffffffffffffffffffffffffffffffffff167f8c5be1e5ebec7d5bd14f71427d1e84f3dd0314c0f7b2291e5b200ac8c7c3b92560405160405180910390a45050565b60008061124983610856565b90508073ffffffffffffffffffffffffffffffffffffffff168473ffffffffffffffffffffffffffffffffffffffff16148061128b575061128a8185611033565b5b806112c957508373ffffffffffffffffffffffffffffffffffffffff166112b184610531565b73ffffffffffffffffffffffffffffffffffffffff16145b91505092915050565b8273ffffffffffffffffffffffffffffffffffffffff166112f282610856565b73ffffffffffffffffffffffffffffffffffffffff1614611348576040517f08c379a000000000000000000000000000000000000000000000000000000000815260040161133f906129f3565b60405180910390fd5b600073ffffffffffffffffffffffffffffffffffffffff168273ffffffffffffffffffffffffffffffffffffffff1614156113b8576040517f08c379a00000000000000000000000000000000000000000000000000000000081526004016113af90612a85565b60405180910390fd5b6113c383838361180a565b6113ce600082611184565b6001600360008573ffffffffffffffffffffffffffffffffffffffff1673ffffffffffffffffffffffffffffffffffffffff168152602001908152602001600020600082825461141e9190612aa5565b925050819055506001600360008473ffffffffffffffffffffffffffffffffffffffff1673ffffffffffffffffffffffffffffffffffffffff16815260200190815260200160002060008282546114759190612ad9565b92505081905550816002600083815260200190815260200160002060006101000a81548173ffffffffffffffffffffffffffffffffffffffff021916908373ffffffffffffffffffffffffffffffffffffffff160217905550808273ffffffffffffffffffffffffffffffffffffffff168473ffffffffffffffffffffffffffffffffffffffff167fddf252ad1be2c89b69c2b068fc378daa952ba7f163c4a11628f55a4df523b3ef60405160405180910390a461153483838361180f565b505050565b8173ffffffffffffffffffffffffffffffffffffffff168373ffffffffffffffffffffffffffffffffffffffff1614156115a8576040517f08c379a000000000000000000000000000000000000000000000000000000000815260040161159f90612b7b565b60405180910390fd5b80600560008573ffffffffffffffffffffffffffffffffffffffff1673ffffffffffffffffffffffffffffffffffffffff16815260200190815260200160002060008473ffffffffffffffffffffffffffffffffffffffff1673ffffffffffffffffffffffffffffffffffffffff16815260200190815260200160002060006101000a81548160ff0219169083151502179055508173ffffffffffffffffffffffffffffffffffffffff168373ffffffffffffffffffffffffffffffffffffffff167f17307eab39ab6107e8899845ad3d59bd9653f200f220920489ca2b5937696c31836040516116999190611d5a565b60405180910390a3505050565b6116b18484846112d2565b6116bd84848484611814565b6116fc576040517f08c379a00000000000000000000000000000000000000000000000000000000081526004016116f390612c0d565b60405180910390fd5b50505050565b600080600090505b83518110156117505782848281518110611727576117266128da565b5b6020026020010151141561173f576001915050611756565b8061174990612938565b905061170a565b50600090505b92915050565b6001816000016000828254019250508190555050565b600081600001549050919050565b61179a8282604051806020016040528060008152506119ab565b5050565b60008073ffffffffffffffffffffffffffffffffffffffff166002600084815260200190815260200160002060009054906101000a900473ffffffffffffffffffffffffffffffffffffffff1673ffffffffffffffffffffffffffffffffffffffff1614159050919050565b505050565b505050565b60006118358473ffffffffffffffffffffffffffffffffffffffff16611a06565b1561199e578373ffffffffffffffffffffffffffffffffffffffff1663150b7a0261185e61117c565b8786866040518563ffffffff1660e01b81526004016118809493929190612c82565b602060405180830381600087803b15801561189a57600080fd5b505af19250505080156118cb57506040513d601f19601f820116820180604052508101906118c89190612ce3565b60015b61194e573d80600081146118fb576040519150601f19603f3d011682016040523d82523d6000602084013e611900565b606091505b50600081511415611946576040517f08c379a000000000000000000000000000000000000000000000000000000000815260040161193d90612c0d565b60405180910390fd5b805181602001fd5b63150b7a0260e01b7bffffffffffffffffffffffffffffffffffffffffffffffffffffffff1916817bffffffffffffffffffffffffffffffffffffffffffffffffffffffff1916149150506119a3565b600190505b949350505050565b6119b58383611a29565b6119c26000848484611814565b611a01576040517f08c379a00000000000000000000000000000000000000000000000000000000081526004016119f890612c0d565b60405180910390fd5b505050565b6000808273ffffffffffffffffffffffffffffffffffffffff163b119050919050565b600073ffffffffffffffffffffffffffffffffffffffff168273ffffffffffffffffffffffffffffffffffffffff161415611a99576040517f08c379a0000000000000000000000000000000000000000000000000000000008152600401611a9090612d5c565b60405180910390fd5b611aa28161179e565b15611ae2576040517f08c379a0000000000000000000000000000000000000000000000000000000008152600401611ad990612dc8565b60405180910390fd5b611aee6000838361180a565b6001600360008473ffffffffffffffffffffffffffffffffffffffff1673ffffffffffffffffffffffffffffffffffffffff1681526020019081526020016000206000828254611b3e9190612ad9565b92505081905550816002600083815260200190815260200160002060006101000a81548173ffffffffffffffffffffffffffffffffffffffff021916908373ffffffffffffffffffffffffffffffffffffffff160217905550808273ffffffffffffffffffffffffffffffffffffffff16600073ffffffffffffffffffffffffffffffffffffffff167fddf252ad1be2c89b69c2b068fc378daa952ba7f163c4a11628f55a4df523b3ef60405160405180910390a4611bff6000838361180f565b5050565b828054611c0f906125f4565b90600052602060002090601f016020900481019282611c315760008555611c78565b82601f10611c4a57805160ff1916838001178555611c78565b82800160010185558215611c78579182015b82811115611c77578251825591602001919060010190611c5c565b5b509050611c859190611c89565b5090565b5b80821115611ca2576000816000905550600101611c8a565b5090565b6000604051905090565b600080fd5b600080fd5b60007fffffffff0000000000000000000000000000000000000000000000000000000082169050919050565b611cef81611cba565b8114611cfa57600080fd5b50565b600081359050611d0c81611ce6565b92915050565b600060208284031215611d2857611d27611cb0565b5b6000611d3684828501611cfd565b91505092915050565b60008115159050919050565b611d5481611d3f565b82525050565b6000602082019050611d6f6000830184611d4b565b92915050565b600081519050919050565b600082825260208201905092915050565b60005b83811015611daf578082015181840152602081019050611d94565b83811115611dbe576000848401525b50505050565b6000601f19601f8301169050919050565b6000611de082611d75565b611dea8185611d80565b9350611dfa818560208601611d91565b611e0381611dc4565b840191505092915050565b60006020820190508181036000830152611e288184611dd5565b905092915050565b6000819050919050565b611e4381611e30565b8114611e4e57600080fd5b50565b600081359050611e6081611e3a565b92915050565b600060208284031215611e7c57611e7b611cb0565b5b6000611e8a84828501611e51565b91505092915050565b600073ffffffffffffffffffffffffffffffffffffffff82169050919050565b6000611ebe82611e93565b9050919050565b611ece81611eb3565b82525050565b6000602082019050611ee96000830184611ec5565b92915050565b611ef881611eb3565b8114611f0357600080fd5b50565b600081359050611f1581611eef565b92915050565b60008060408385031215611f3257611f31611cb0565b5b6000611f4085828601611f06565b9250506020611f5185828601611e51565b9150509250929050565b600080600060608486031215611f7457611f73611cb0565b5b6000611f8286828701611f06565b9350506020611f9386828701611f06565b9250506040611fa486828701611e51565b9150509250925092565b611fb781611e30565b82525050565b6000606082019050611fd26000830186611fae565b8181036020830152611fe48185611dd5565b9050611ff36040830184611fae565b949350505050565b600081519050919050565b600082825260208201905092915050565b6000819050602082019050919050565b61203081611e30565b82525050565b60006120428383612027565b60208301905092915050565b6000602082019050919050565b600061206682611ffb565b6120708185612006565b935061207b83612017565b8060005b838110156120ac5781516120938882612036565b975061209e8361204e565b92505060018101905061207f565b5085935050505092915050565b600060208201905081810360008301526120d3818461205b565b905092915050565b6000602082840312156120f1576120f0611cb0565b5b60006120ff84828501611f06565b91505092915050565b600060208201905061211d6000830184611fae565b92915050565b600081519050919050565b600082825260208201905092915050565b6000819050602082019050919050565b600082825260208201905092915050565b600061216b82611d75565b612175818561214f565b9350612185818560208601611d91565b61218e81611dc4565b840191505092915050565b60006121a58383612160565b905092915050565b6000602082019050919050565b60006121c582612123565b6121cf818561212e565b9350836020820285016121e18561213f565b8060005b8581101561221d57848403895281516121fe8582612199565b9450612209836121ad565b925060208a019950506001810190506121e5565b50829750879550505050505092915050565b6000602082019050818103600083015261224981846121ba565b905092915050565b61225a81611d3f565b811461226557600080fd5b50565b60008135905061227781612251565b92915050565b6000806040838503121561229457612293611cb0565b5b60006122a285828601611f06565b92505060206122b385828601612268565b9150509250929050565b600080fd5b600080fd5b7f4e487b7100000000000000000000000000000000000000000000000000000000600052604160045260246000fd5b6122ff82611dc4565b810181811067ffffffffffffffff8211171561231e5761231d6122c7565b5b80604052505050565b6000612331611ca6565b905061233d82826122f6565b919050565b600067ffffffffffffffff82111561235d5761235c6122c7565b5b61236682611dc4565b9050602081019050919050565b82818337600083830152505050565b600061239561239084612342565b612327565b9050828152602081018484840111156123b1576123b06122c2565b5b6123bc848285612373565b509392505050565b600082601f8301126123d9576123d86122bd565b5b81356123e9848260208601612382565b91505092915050565b6000806000806080858703121561240c5761240b611cb0565b5b600061241a87828801611f06565b945050602061242b87828801611f06565b935050604061243c87828801611e51565b925050606085013567ffffffffffffffff81111561245d5761245c611cb5565b5b612469878288016123c4565b91505092959194509250565b600067ffffffffffffffff8211156124905761248f6122c7565b5b61249982611dc4565b9050602081019050919050565b60006124b96124b484612475565b612327565b9050828152602081018484840111156124d5576124d46122c2565b5b6124e0848285612373565b509392505050565b600082601f8301126124fd576124fc6122bd565b5b813561250d8482602086016124a6565b91505092915050565b60008060006060848603121561252f5761252e611cb0565b5b600061253d86828701611f06565b935050602061254e86828701611e51565b925050604084013567ffffffffffffffff81111561256f5761256e611cb5565b5b61257b868287016124e8565b9150509250925092565b6000806040838503121561259c5761259b611cb0565b5b60006125aa85828601611f06565b92505060206125bb85828601611f06565b9150509250929050565b7f4e487b7100000000000000000000000000000000000000000000000000000000600052602260045260246000fd5b6000600282049050600182168061260c57607f821691505b602082108114156126205761261f6125c5565b5b50919050565b7f4552433732313a20617070726f76616c20746f2063757272656e74206f776e6560008201527f7200000000000000000000000000000000000000000000000000000000000000602082015250565b6000612682602183611d80565b915061268d82612626565b604082019050919050565b600060208201905081810360008301526126b181612675565b9050919050565b7f4552433732313a20617070726f76652063616c6c6572206973206e6f7420746f60008201527f6b656e206f776e6572206e6f7220617070726f76656420666f7220616c6c0000602082015250565b6000612714603e83611d80565b915061271f826126b8565b604082019050919050565b6000602082019050818103600083015261274381612707565b9050919050565b7f4552433732313a2063616c6c6572206973206e6f7420746f6b656e206f776e6560008201527f72206e6f7220617070726f766564000000000000000000000000000000000000602082015250565b60006127a6602e83611d80565b91506127b18261274a565b604082019050919050565b600060208201905081810360008301526127d581612799565b9050919050565b7f4552433732313a20696e76616c696420746f6b656e2049440000000000000000600082015250565b6000612812601883611d80565b915061281d826127dc565b602082019050919050565b6000602082019050818103600083015261284181612805565b9050919050565b7f4552433732313a2061646472657373207a65726f206973206e6f74206120766160008201527f6c6964206f776e65720000000000000000000000000000000000000000000000602082015250565b60006128a4602983611d80565b91506128af82612848565b604082019050919050565b600060208201905081810360008301526128d381612897565b9050919050565b7f4e487b7100000000000000000000000000000000000000000000000000000000600052603260045260246000fd5b7f4e487b7100000000000000000000000000000000000000000000000000000000600052601160045260246000fd5b600061294382611e30565b91507fffffffffffffffffffffffffffffffffffffffffffffffffffffffffffffffff82141561297657612975612909565b5b600182019050919050565b7f4552433732313a207472616e736665722066726f6d20696e636f72726563742060008201527f6f776e6572000000000000000000000000000000000000000000000000000000602082015250565b60006129dd602583611d80565b91506129e882612981565b604082019050919050565b60006020820190508181036000830152612a0c816129d0565b9050919050565b7f4552433732313a207472616e7366657220746f20746865207a65726f2061646460008201527f7265737300000000000000000000000000000000000000000000000000000000602082015250565b6000612a6f602483611d80565b9150612a7a82612a13565b604082019050919050565b60006020820190508181036000830152612a9e81612a62565b9050919050565b6000612ab082611e30565b9150612abb83611e30565b925082821015612ace57612acd612909565b5b828203905092915050565b6000612ae482611e30565b9150612aef83611e30565b9250827fffffffffffffffffffffffffffffffffffffffffffffffffffffffffffffffff03821115612b2457612b23612909565b5b828201905092915050565b7f4552433732313a20617070726f766520746f2063616c6c657200000000000000600082015250565b6000612b65601983611d80565b9150612b7082612b2f565b602082019050919050565b60006020820190508181036000830152612b9481612b58565b9050919050565b7f4552433732313a207472616e7366657220746f206e6f6e20455243373231526560008201527f63656976657220696d706c656d656e7465720000000000000000000000000000602082015250565b6000612bf7603283611d80565b9150612c0282612b9b565b604082019050919050565b60006020820190508181036000830152612c2681612bea565b9050919050565b600081519050919050565b600082825260208201905092915050565b6000612c5482612c2d565b612c5e8185612c38565b9350612c6e818560208601611d91565b612c7781611dc4565b840191505092915050565b6000608082019050612c976000830187611ec5565b612ca46020830186611ec5565b612cb16040830185611fae565b8181036060830152612cc38184612c49565b905095945050505050565b600081519050612cdd81611ce6565b92915050565b600060208284031215612cf957612cf8611cb0565b5b6000612d0784828501612cce565b91505092915050565b7f4552433732313a206d696e7420746f20746865207a65726f2061646472657373600082015250565b6000612d46602083611d80565b9150612d5182612d10565b602082019050919050565b60006020820190508181036000830152612d7581612d39565b9050919050565b7f4552433732313a20746f6b656e20616c7265616479206d696e74656400000000600082015250565b6000612db2601c83611d80565b9150612dbd82612d7c565b602082019050919050565b60006020820190508181036000830152612de181612da5565b905091905056fea2646970667358221220dea3df18889a0444de68e45401e8f949e32f11fd05e601c1390eb27b73fb434f64736f6c63430008080033a264697066735822122062b72a0de9869ada7ab44cf62baa6ee9b2affcea738e9ddacbe1947472d8d4b764736f6c63430008080033",
  "linkReferences": {},
  "deployedLinkReferences": {}
}